8=FIX.4.2|9=178|35=8|49=BROKER04|56=REUTERS|52=20091123-05:30:00.000|11=ETLOGICXXX99|20=3|150=E|39=E|55=MSFT|167=CS|54=1|38=15|40=2|44=15|58=ETLOGICTESTING|59=0|47=C|32=0|31=0|151=15|14=0|6=0|10=127|