8=FIX.4.2|9=130|35=D|34=659|49=BROKER04|56=REUTERS|52=20070123-19:09:43|38=1000|59=1|100=N|40=1|11=ORD10001|60=20070123-19:01:17|55=HPQ|54=1|21=2|10=004|